{
  "_format": "hh-sol-artifact-1",
  "contractName": "Vanguard",
  "sourceName": "contracts/Vanguard.sol",
  "abi": [
    {
      "inputs": [
        {
          "internalType": "string",
          "name": "_baseURI",
          "type": "string"
        }
      ],
      "stateMutability": "nonpayable",
      "type": "constructor"
    },
    {
      "inputs": [
        {
          "internalType": "address",
          "name": "sender",
          "type": "address"
        },
        {
          "internalType": "uint256",
          "name": "tokenId",
          "type": "uint256"
        },
        {
          "internalType": "address",
          "name": "owner",
          "type": "address"
        }
      ],
      "name": "ERC721IncorrectOwner",
      "type": "error"
    },
    {
      "inputs": [
        {
          "internalType": "address",
          "name": "operator",
          "type": "address"
        },
        {
          "internalType": "uint256",
          "name": "tokenId",
          "type": "uint256"
        }
      ],
      "name": "ERC721InsufficientApproval",
      "type": "error"
    },
    {
      "inputs": [
        {
          "internalType": "address",
          "name": "approver",
          "type": "address"
        }
      ],
      "name": "ERC721InvalidApprover",
      "type": "error"
    },
    {
      "inputs": [
        {
          "internalType": "address",
          "name": "operator",
          "type": "address"
        }
      ],
      "name": "ERC721InvalidOperator",
      "type": "error"
    },
    {
      "inputs": [
        {
          "internalType": "address",
          "name": "owner",
          "type": "address"
        }
      ],
      "name": "ERC721InvalidOwner",
      "type": "error"
    },
    {
      "inputs": [
        {
          "internalType": "address",
          "name": "receiver",
          "type": "address"
        }
      ],
      "name": "ERC721InvalidReceiver",
      "type": "error"
    },
    {
      "inputs": [
        {
          "internalType": "address",
          "name": "sender",
          "type": "address"
        }
      ],
      "name": "ERC721InvalidSender",
      "type": "error"
    },
    {
      "inputs": [
        {
          "internalType": "uint256",
          "name": "tokenId",
          "type": "uint256"
        }
      ],
      "name": "ERC721NonexistentToken",
      "type": "error"
    },
    {
      "inputs": [
        {
          "internalType": "address",
          "name": "owner",
          "type": "address"
        }
      ],
      "name": "OwnableInvalidOwner",
      "type": "error"
    },
    {
      "inputs": [
        {
          "internalType": "address",
          "name": "account",
          "type": "address"
        }
      ],
      "name": "OwnableUnauthorizedAccount",
      "type": "error"
    },
    {
      "anonymous": false,
      "inputs": [
        {
          "indexed": true,
          "internalType": "address",
          "name": "owner",
          "type": "address"
        },
        {
          "indexed": true,
          "internalType": "address",
          "name": "approved",
          "type": "address"
        },
        {
          "indexed": true,
          "internalType": "uint256",
          "name": "tokenId",
          "type": "uint256"
        }
      ],
      "name": "Approval",
      "type": "event"
    },
    {
      "anonymous": false,
      "inputs": [
        {
          "indexed": true,
          "internalType": "address",
          "name": "owner",
          "type": "address"
        },
        {
          "indexed": true,
          "internalType": "address",
          "name": "operator",
          "type": "address"
        },
        {
          "indexed": false,
          "internalType": "bool",
          "name": "approved",
          "type": "bool"
        }
      ],
      "name": "ApprovalForAll",
      "type": "event"
    },
    {
      "anonymous": false,
      "inputs": [
        {
          "indexed": true,
          "internalType": "address",
          "name": "previousOwner",
          "type": "address"
        },
        {
          "indexed": true,
          "internalType": "address",
          "name": "newOwner",
          "type": "address"
        }
      ],
      "name": "OwnershipTransferred",
      "type": "event"
    },
    {
      "anonymous": false,
      "inputs": [
        {
          "indexed": true,
          "internalType": "address",
          "name": "from",
          "type": "address"
        },
        {
          "indexed": true,
          "internalType": "address",
          "name": "to",
          "type": "address"
        },
        {
          "indexed": true,
          "internalType": "uint256",
          "name": "tokenId",
          "type": "uint256"
        }
      ],
      "name": "Transfer",
      "type": "event"
    },
    {
      "inputs": [],
      "name": "MAX_PER_TX",
      "outputs": [
        {
          "internalType": "uint256",
          "name": "",
          "type": "uint256"
        }
      ],
      "stateMutability": "view",
      "type": "function"
    },
    {
      "inputs": [],
      "name": "MAX_SUPPLY",
      "outputs": [
        {
          "internalType": "uint256",
          "name": "",
          "type": "uint256"
        }
      ],
      "stateMutability": "view",
      "type": "function"
    },
    {
      "inputs": [],
      "name": "MINT_PRICE",
      "outputs": [
        {
          "internalType": "uint256",
          "name": "",
          "type": "uint256"
        }
      ],
      "stateMutability": "view",
      "type": "function"
    },
    {
      "inputs": [
        {
          "internalType": "address",
          "name": "to",
          "type": "address"
        },
        {
          "internalType": "uint256",
          "name": "tokenId",
          "type": "uint256"
        }
      ],
      "name": "approve",
      "outputs": [],
      "stateMutability": "nonpayable",
      "type": "function"
    },
    {
      "inputs": [
        {
          "internalType": "address",
          "name": "owner",
          "type": "address"
        }
      ],
      "name": "balanceOf",
      "outputs": [
        {
          "internalType": "uint256",
          "name": "",
          "type": "uint256"
        }
      ],
      "stateMutability": "view",
      "type": "function"
    },
    {
      "inputs": [],
      "name": "baseURI",
      "outputs": [
        {
          "internalType": "string",
          "name": "",
          "type": "string"
        }
      ],
      "stateMutability": "view",
      "type": "function"
    },
    {
      "inputs": [
        {
          "internalType": "uint256",
          "name": "tokenId",
          "type": "uint256"
        }
      ],
      "name": "getApproved",
      "outputs": [
        {
          "internalType": "address",
          "name": "",
          "type": "address"
        }
      ],
      "stateMutability": "view",
      "type": "function"
    },
    {
      "inputs": [
        {
          "internalType": "address",
          "name": "owner",
          "type": "address"
        },
        {
          "internalType": "address",
          "name": "operator",
          "type": "address"
        }
      ],
      "name": "isApprovedForAll",
      "outputs": [
        {
          "internalType": "bool",
          "name": "",
          "type": "bool"
        }
      ],
      "stateMutability": "view",
      "type": "function"
    },
    {
      "inputs": [
        {
          "internalType": "uint256",
          "name": "quantity",
          "type": "uint256"
        }
      ],
      "name": "mint",
      "outputs": [],
      "stateMutability": "payable",
      "type": "function"
    },
    {
      "inputs": [],
      "name": "mintActive",
      "outputs": [
        {
          "internalType": "bool",
          "name": "",
          "type": "bool"
        }
      ],
      "stateMutability": "view",
      "type": "function"
    },
    {
      "inputs": [],
      "name": "name",
      "outputs": [
        {
          "internalType": "string",
          "name": "",
          "type": "string"
        }
      ],
      "stateMutability": "view",
      "type": "function"
    },
    {
      "inputs": [],
      "name": "owner",
      "outputs": [
        {
          "internalType": "address",
          "name": "",
          "type": "address"
        }
      ],
      "stateMutability": "view",
      "type": "function"
    },
    {
      "inputs": [
        {
          "internalType": "uint256",
          "name": "tokenId",
          "type": "uint256"
        }
      ],
      "name": "ownerOf",
      "outputs": [
        {
          "internalType": "address",
          "name": "",
          "type": "address"
        }
      ],
      "stateMutability": "view",
      "type": "function"
    },
    {
      "inputs": [],
      "name": "renounceOwnership",
      "outputs": [],
      "stateMutability": "nonpayable",
      "type": "function"
    },
    {
      "inputs": [
        {
          "internalType": "address",
          "name": "from",
          "type": "address"
        },
        {
          "internalType": "address",
          "name": "to",
          "type": "address"
        },
        {
          "internalType": "uint256",
          "name": "tokenId",
          "type": "uint256"
        }
      ],
      "name": "safeTransferFrom",
      "outputs": [],
      "stateMutability": "nonpayable",
      "type": "function"
    },
    {
      "inputs": [
        {
          "internalType": "address",
          "name": "from",
          "type": "address"
        },
        {
          "internalType": "address",
          "name": "to",
          "type": "address"
        },
        {
          "internalType": "uint256",
          "name": "tokenId",
          "type": "uint256"
        },
        {
          "internalType": "bytes",
          "name": "data",
          "type": "bytes"
        }
      ],
      "name": "safeTransferFrom",
      "outputs": [],
      "stateMutability": "nonpayable",
      "type": "function"
    },
    {
      "inputs": [
        {
          "internalType": "address",
          "name": "operator",
          "type": "address"
        },
        {
          "internalType": "bool",
          "name": "approved",
          "type": "bool"
        }
      ],
      "name": "setApprovalForAll",
      "outputs": [],
      "stateMutability": "nonpayable",
      "type": "function"
    },
    {
      "inputs": [
        {
          "internalType": "string",
          "name": "_newBaseURI",
          "type": "string"
        }
      ],
      "name": "setBaseURI",
      "outputs": [],
      "stateMutability": "nonpayable",
      "type": "function"
    },
    {
      "inputs": [
        {
          "internalType": "bool",
          "name": "_active",
          "type": "bool"
        }
      ],
      "name": "setMintActive",
      "outputs": [],
      "stateMutability": "nonpayable",
      "type": "function"
    },
    {
      "inputs": [
        {
          "internalType": "bytes4",
          "name": "interfaceId",
          "type": "bytes4"
        }
      ],
      "name": "supportsInterface",
      "outputs": [
        {
          "internalType": "bool",
          "name": "",
          "type": "bool"
        }
      ],
      "stateMutability": "view",
      "type": "function"
    },
    {
      "inputs": [],
      "name": "symbol",
      "outputs": [
        {
          "internalType": "string",
          "name": "",
          "type": "string"
        }
      ],
      "stateMutability": "view",
      "type": "function"
    },
    {
      "inputs": [
        {
          "internalType": "uint256",
          "name": "tokenId",
          "type": "uint256"
        }
      ],
      "name": "tokenURI",
      "outputs": [
        {
          "internalType": "string",
          "name": "",
          "type": "string"
        }
      ],
      "stateMutability": "view",
      "type": "function"
    },
    {
      "inputs": [],
      "name": "totalSupply",
      "outputs": [
        {
          "internalType": "uint256",
          "name": "",
          "type": "uint256"
        }
      ],
      "stateMutability": "view",
      "type": "function"
    },
    {
      "inputs": [
        {
          "internalType": "address",
          "name": "from",
          "type": "address"
        },
        {
          "internalType": "address",
          "name": "to",
          "type": "address"
        },
        {
          "internalType": "uint256",
          "name": "tokenId",
          "type": "uint256"
        }
      ],
      "name": "transferFrom",
      "outputs": [],
      "stateMutability": "nonpayable",
      "type": "function"
    },
    {
      "inputs": [
        {
          "internalType": "address",
          "name": "newOwner",
          "type": "address"
        }
      ],
      "name": "transferOwnership",
      "outputs": [],
      "stateMutability": "nonpayable",
      "type": "function"
    },
    {
      "inputs": [],
      "name": "withdraw",
      "outputs": [],
      "stateMutability": "nonpayable",
      "type": "function"
    }
  ],
  "bytecode": "0x608060405234801561000f575f5ffd5b506040516134c63803806134c683398181016040528101906100319190610365565b336040518060400160405280600881526020017f56616e67756172640000000000000000000000000000000000000000000000008152506040518060400160405280600581526020017f564e475244000000000000000000000000000000000000000000000000000000815250815f90816100ac91906105bc565b5080600190816100bc91906105bc565b5050505f73ffffffffffffffffffffffffffffffffffffffff168173ffffffffffffffffffffffffffffffffffffffff160361012f575f6040517f1e4fbdf700000000000000000000000000000000000000000000000000000000815260040161012691906106ca565b60405180910390fd5b61013e8161015560201b60201c565b50806008908161014e91906105bc565b50506106e3565b5f60065f9054906101000a900473ffffffffffffffffffffffffffffffffffffffff1690508160065f6101000a81548173ffffffffffffffffffffffffffffffffffffffff021916908373ffffffffffffffffffffffffffffffffffffffff1602179055508173ffffffffffffffffffffffffffffffffffffffff168173ffffffffffffffffffffffffffffffffffffffff167f8be0079c531659141344cd1fd0a4f28419497f9722a3daafe3b4186f6b6457e060405160405180910390a35050565b5f604051905090565b5f5ffd5b5f5ffd5b5f5ffd5b5f5ffd5b5f601f19601f8301169050919050565b7f4e487b71000000000000000000000000000000000000000000000000000000005f52604160045260245ffd5b61027782610231565b810181811067ffffffffffffffff8211171561029657610295610241565b5b80604052505050565b5f6102a8610218565b90506102b4828261026e565b919050565b5f67ffffffffffffffff8211156102d3576102d2610241565b5b6102dc82610231565b9050602081019050919050565b8281835e5f83830152505050565b5f610309610304846102b9565b61029f565b9050828152602081018484840111156103255761032461022d565b5b6103308482856102e9565b509392505050565b5f82601f83011261034c5761034b610229565b5b815161035c8482602086016102f7565b91505092915050565b5f6020828403121561037a57610379610221565b5b5f82015167ffffffffffffffff81111561039757610396610225565b5b6103a384828501610338565b91505092915050565b5f81519050919050565b7f4e487b71000000000000000000000000000000000000000000000000000000005f52602260045260245ffd5b5f60028204905060018216806103fa57607f821691505b60208210810361040d5761040c6103b6565b5b50919050565b5f819050815f5260205f209050919050565b5f6020601f8301049050919050565b5f82821b905092915050565b5f6008830261046f7fffffffffffffffffffffffffffffffffffffffffffffffffffffffffffffffff82610434565b6104798683610434565b95508019841693508086168417925050509392505050565b5f819050919050565b5f819050919050565b5f6104bd6104b86104b384610491565b61049a565b610491565b9050919050565b5f819050919050565b6104d6836104a3565b6104ea6104e2826104c4565b848454610440565b825550505050565b5f5f905090565b6105016104f2565b61050c8184846104cd565b505050565b5b8181101561052f576105245f826104f9565b600181019050610512565b5050565b601f8211156105745761054581610413565b61054e84610425565b8101602085101561055d578190505b61057161056985610425565b830182610511565b50505b505050565b5f82821c905092915050565b5f6105945f1984600802610579565b1980831691505092915050565b5f6105ac8383610585565b9150826002028217905092915050565b6105c5826103ac565b67ffffffffffffffff8111156105de576105dd610241565b5b6105e882546103e3565b6105f3828285610533565b5f60209050601f831160018114610624575f8415610612578287015190505b61061c85826105a1565b865550610683565b601f19841661063286610413565b5f5b8281101561065957848901518255600182019150602085019450602081019050610634565b868310156106765784890151610672601f891682610585565b8355505b6001600288020188555050505b505050505050565b5f73ffffffffffffffffffffffffffffffffffffffff82169050919050565b5f6106b48261068b565b9050919050565b6106c4816106aa565b82525050565b5f6020820190506106dd5f8301846106bb565b92915050565b612dd6806106f05f395ff3fe608060405260043610610180575f3560e01c806370a08231116100d0578063b88d4fde11610089578063e985e9c511610063578063e985e9c514610538578063ee1cc94414610574578063f2fde38b1461059c578063f43a22dc146105c457610180565b8063b88d4fde146104aa578063c002d23d146104d2578063c87b56dd146104fc57610180565b806370a08231146103c0578063715018a6146103fc5780638da5cb5b1461041257806395d89b411461043c578063a0712d6814610466578063a22cb4651461048257610180565b806325fd90f31161013d57806342842e0e1161011757806342842e0e1461030a57806355f804b3146103325780636352211e1461035a5780636c0360eb1461039657610180565b806325fd90f3146102a057806332cb6b0c146102ca5780633ccfd60b146102f457610180565b806301ffc9a71461018457806306fdde03146101c0578063081812fc146101ea578063095ea7b31461022657806318160ddd1461024e57806323b872dd14610278575b5f5ffd5b34801561018f575f5ffd5b506101aa60048036038101906101a59190611e94565b6105ee565b6040516101b79190611ed9565b60405180910390f35b3480156101cb575f5ffd5b506101d46106cf565b6040516101e19190611f62565b60405180910390f35b3480156101f5575f5ffd5b50610210600480360381019061020b9190611fb5565b61075e565b60405161021d919061201f565b60405180910390f35b348015610231575f5ffd5b5061024c60048036038101906102479190612062565b610779565b005b348015610259575f5ffd5b5061026261078f565b60405161026f91906120af565b60405180910390f35b348015610283575f5ffd5b5061029e600480360381019061029991906120c8565b610795565b005b3480156102ab575f5ffd5b506102b4610894565b6040516102c19190611ed9565b60405180910390f35b3480156102d5575f5ffd5b506102de6108a6565b6040516102eb91906120af565b60405180910390f35b3480156102ff575f5ffd5b506103086108ac565b005b348015610315575f5ffd5b50610330600480360381019061032b91906120c8565b610966565b005b34801561033d575f5ffd5b5061035860048036038101906103539190612244565b610985565b005b348015610365575f5ffd5b50610380600480360381019061037b9190611fb5565b6109a0565b60405161038d919061201f565b60405180910390f35b3480156103a1575f5ffd5b506103aa6109b1565b6040516103b79190611f62565b60405180910390f35b3480156103cb575f5ffd5b506103e660048036038101906103e1919061228b565b610a3d565b6040516103f391906120af565b60405180910390f35b348015610407575f5ffd5b50610410610af3565b005b34801561041d575f5ffd5b50610426610b06565b604051610433919061201f565b60405180910390f35b348015610447575f5ffd5b50610450610b2e565b60405161045d9190611f62565b60405180910390f35b610480600480360381019061047b9190611fb5565b610bbe565b005b34801561048d575f5ffd5b506104a860048036038101906104a391906122e0565b610d44565b005b3480156104b5575f5ffd5b506104d060048036038101906104cb91906123bc565b610d5a565b005b3480156104dd575f5ffd5b506104e6610d7f565b6040516104f391906120af565b60405180910390f35b348015610507575f5ffd5b50610522600480360381019061051d9190611fb5565b610d8b565b60405161052f9190611f62565b60405180910390f35b348015610543575f5ffd5b5061055e6004803603810190610559919061243c565b610e0f565b60405161056b9190611ed9565b60405180910390f35b34801561057f575f5ffd5b5061059a6004803603810190610595919061247a565b610e9d565b005b3480156105a7575f5ffd5b506105c260048036038101906105bd919061228b565b610ec1565b005b3480156105cf575f5ffd5b506105d8610f45565b6040516105e591906120af565b60405180910390f35b5f7f80ac58cd000000000000000000000000000000000000000000000000000000007bffffffffffffffffffffffffffffffffffffffffffffffffffffffff1916827bffffffffffffffffffffffffffffffffffffffffffffffffffffffff191614806106b857507f5b5e139f000000000000000000000000000000000000000000000000000000007bffffffffffffffffffffffffffffffffffffffffffffffffffffffff1916827bffffffffffffffffffffffffffffffffffffffffffffffffffffffff1916145b806106c857506106c782610f4a565b5b9050919050565b60605f80546106dd906124d2565b80601f0160208091040260200160405190810160405280929190818152602001828054610709906124d2565b80156107545780601f1061072b57610100808354040283529160200191610754565b820191905f5260205f20905b81548152906001019060200180831161073757829003601f168201915b5050505050905090565b5f61076882610fb3565b5061077282611039565b9050919050565b61078b8282610786611072565b611079565b5050565b60075481565b5f73ffffffffffffffffffffffffffffffffffffffff168273ffffffffffffffffffffffffffffffffffffffff1603610805575f6040517f64a0ae920000000000000000000000000000000000000000000000000000000081526004016107fc919061201f565b60405180910390fd5b5f6108188383610813611072565b61108b565b90508373ffffffffffffffffffffffffffffffffffffffff168173ffffffffffffffffffffffffffffffffffffffff161461088e578382826040517f64283d7b00000000000000000000000000000000000000000000000000000000815260040161088593929190612502565b60405180910390fd5b50505050565b60095f9054906101000a900460ff1681565b61271081565b6108b4611296565b5f6108bd610b06565b73ffffffffffffffffffffffffffffffffffffffff16476040516108e090612564565b5f6040518083038185875af1925050503d805f811461091a576040519150601f19603f3d011682016040523d82523d5f602084013e61091f565b606091505b5050905080610963576040517f08c379a000000000000000000000000000000000000000000000000000000000815260040161095a906125c2565b60405180910390fd5b50565b61098083838360405180602001604052805f815250610d5a565b505050565b61098d611296565b806008908161099c9190612780565b5050565b5f6109aa82610fb3565b9050919050565b600880546109be906124d2565b80601f01602080910402602001604051908101604052809291908181526020018280546109ea906124d2565b8015610a355780601f10610a0c57610100808354040283529160200191610a35565b820191905f5260205f20905b815481529060010190602001808311610a1857829003601f168201915b505050505081565b5f5f73ffffffffffffffffffffffffffffffffffffffff168273ffffffffffffffffffffffffffffffffffffffff1603610aae575f6040517f89c62b64000000000000000000000000000000000000000000000000000000008152600401610aa5919061201f565b60405180910390fd5b60035f8373ffffffffffffffffffffffffffffffffffffffff1673ffffffffffffffffffffffffffffffffffffffff1681526020019081526020015f20549050919050565b610afb611296565b610b045f61131d565b565b5f60065f9054906101000a900473ffffffffffffffffffffffffffffffffffffffff16905090565b606060018054610b3d906124d2565b80601f0160208091040260200160405190810160405280929190818152602001828054610b69906124d2565b8015610bb45780601f10610b8b57610100808354040283529160200191610bb4565b820191905f5260205f20905b815481529060010190602001808311610b9757829003601f168201915b5050505050905090565b60095f9054906101000a900460ff16610c0c576040517f08c379a0000000000000000000000000000000000000000000000000000000008152600401610c0390612899565b60405180910390fd5b5f81118015610c1c575060058111155b610c5b576040517f08c379a0000000000000000000000000000000000000000000000000000000008152600401610c5290612901565b60405180910390fd5b61271081600754610c6c919061294c565b1115610cad576040517f08c379a0000000000000000000000000000000000000000000000000000000008152600401610ca4906129c9565b60405180910390fd5b8067011c37937e080000610cc191906129e7565b341015610d03576040517f08c379a0000000000000000000000000000000000000000000000000000000008152600401610cfa90612a72565b60405180910390fd5b5f5f90505b81811015610d405760075f815480929190610d2290612a90565b9190505550610d33336007546113e0565b8080600101915050610d08565b5050565b610d56610d4f611072565b83836113fd565b5050565b610d65848484610795565b610d79610d70611072565b858585856115d6565b50505050565b67011c37937e08000081565b60605f82118015610d9e57506007548211155b610ddd576040517f08c379a0000000000000000000000000000000000000000000000000000000008152600401610dd490612b21565b60405180910390fd5b6008610de883611782565b604051602001610df9929190612c43565b6040516020818303038152906040529050919050565b5f60055f8473ffffffffffffffffffffffffffffffffffffffff1673ffffffffffffffffffffffffffffffffffffffff1681526020019081526020015f205f8373ffffffffffffffffffffffffffffffffffffffff1673ffffffffffffffffffffffffffffffffffffffff1681526020019081526020015f205f9054906101000a900460ff16905092915050565b610ea5611296565b8060095f6101000a81548160ff02191690831515021790555050565b610ec9611296565b5f73ffffffffffffffffffffffffffffffffffffffff168173ffffffffffffffffffffffffffffffffffffffff1603610f39575f6040517f1e4fbdf7000000000000000000000000000000000000000000000000000000008152600401610f30919061201f565b60405180910390fd5b610f428161131d565b50565b600581565b5f7f01ffc9a7000000000000000000000000000000000000000000000000000000007bffffffffffffffffffffffffffffffffffffffffffffffffffffffff1916827bffffffffffffffffffffffffffffffffffffffffffffffffffffffff1916149050919050565b5f5f610fbe8361184c565b90505f73ffffffffffffffffffffffffffffffffffffffff168173ffffffffffffffffffffffffffffffffffffffff160361103057826040517f7e27328900000000000000000000000000000000000000000000000000000000815260040161102791906120af565b60405180910390fd5b80915050919050565b5f60045f8381526020019081526020015f205f9054906101000a900473ffffffffffffffffffffffffffffffffffffffff169050919050565b5f33905090565b6110868383836001611885565b505050565b5f5f6110968461184c565b90505f73ffffffffffffffffffffffffffffffffffffffff168373ffffffffffffffffffffffffffffffffffffffff16146110d7576110d6818486611a44565b5b5f73ffffffffffffffffffffffffffffffffffffffff168173ffffffffffffffffffffffffffffffffffffffff1614611162576111165f855f5f611885565b600160035f8373ffffffffffffffffffffffffffffffffffffffff1673ffffffffffffffffffffffffffffffffffffffff1681526020019081526020015f205f82825403925050819055505b5f73ffffffffffffffffffffffffffffffffffffffff168573ffffffffffffffffffffffffffffffffffffffff16146111e157600160035f8773ffffffffffffffffffffffffffffffffffffffff1673ffffffffffffffffffffffffffffffffffffffff1681526020019081526020015f205f82825401925050819055505b8460025f8681526020019081526020015f205f6101000a81548173ffffffffffffffffffffffffffffffffffffffff021916908373ffffffffffffffffffffffffffffffffffffffff160217905550838573ffffffffffffffffffffffffffffffffffffffff168273ffffffffffffffffffffffffffffffffffffffff167fddf252ad1be2c89b69c2b068fc378daa952ba7f163c4a11628f55a4df523b3ef60405160405180910390a4809150509392505050565b61129e611072565b73ffffffffffffffffffffffffffffffffffffffff166112bc610b06565b73ffffffffffffffffffffffffffffffffffffffff161461131b576112df611072565b6040517f118cdaa7000000000000000000000000000000000000000000000000000000008152600401611312919061201f565b60405180910390fd5b565b5f60065f9054906101000a900473ffffffffffffffffffffffffffffffffffffffff1690508160065f6101000a81548173ffffffffffffffffffffffffffffffffffffffff021916908373ffffffffffffffffffffffffffffffffffffffff1602179055508173ffffffffffffffffffffffffffffffffffffffff168173ffffffffffffffffffffffffffffffffffffffff167f8be0079c531659141344cd1fd0a4f28419497f9722a3daafe3b4186f6b6457e060405160405180910390a35050565b6113f9828260405180602001604052805f815250611b07565b5050565b5f73ffffffffffffffffffffffffffffffffffffffff168373ffffffffffffffffffffffffffffffffffffffff160361146d575f6040517fa9fbf51f000000000000000000000000000000000000000000000000000000008152600401611464919061201f565b60405180910390fd5b5f73ffffffffffffffffffffffffffffffffffffffff168273ffffffffffffffffffffffffffffffffffffffff16036114dd57816040517f5b08ba180000000000000000000000000000000000000000000000000000000081526004016114d4919061201f565b60405180910390fd5b8060055f8573ffffffffffffffffffffffffffffffffffffffff1673ffffffffffffffffffffffffffffffffffffffff1681526020019081526020015f205f8473ffffffffffffffffffffffffffffffffffffffff1673ffffffffffffffffffffffffffffffffffffffff1681526020019081526020015f205f6101000a81548160ff0219169083151502179055508173ffffffffffffffffffffffffffffffffffffffff168373ffffffffffffffffffffffffffffffffffffffff167f17307eab39ab6107e8899845ad3d59bd9653f200f220920489ca2b5937696c31836040516115c99190611ed9565b60405180910390a3505050565b5f8373ffffffffffffffffffffffffffffffffffffffff163b111561177b578273ffffffffffffffffffffffffffffffffffffffff1663150b7a02868685856040518563ffffffff1660e01b81526004016116349493929190612cc3565b6020604051808303815f875af192505050801561166f57506040513d601f19601f8201168201806040525081019061166c9190612d21565b60015b6116f0573d805f811461169d576040519150601f19603f3d011682016040523d82523d5f602084013e6116a2565b606091505b505f8151036116e857836040517f64a0ae920000000000000000000000000000000000000000000000000000000081526004016116df919061201f565b60405180910390fd5b805160208201fd5b63150b7a0260e01b7bffffffffffffffffffffffffffffffffffffffffffffffffffffffff1916817bffffffffffffffffffffffffffffffffffffffffffffffffffffffff19161461177957836040517f64a0ae92000000000000000000000000000000000000000000000000000000008152600401611770919061201f565b60405180910390fd5b505b5050505050565b60605f600161179084611b2a565b0190505f8167ffffffffffffffff8111156117ae576117ad612120565b5b6040519080825280601f01601f1916602001820160405280156117e05781602001600182028036833780820191505090505b5090505f82602083010190505b600115611841578080600190039150507f3031323334353637383961626364656600000000000000000000000000000000600a86061a8153600a858161183657611835612d4c565b5b0494505f85036117ed575b819350505050919050565b5f60025f8381526020019081526020015f205f9054906101000a900473ffffffffffffffffffffffffffffffffffffffff169050919050565b80806118bd57505f73ffffffffffffffffffffffffffffffffffffffff168273ffffffffffffffffffffffffffffffffffffffff1614155b156119ef575f6118cc84610fb3565b90505f73ffffffffffffffffffffffffffffffffffffffff168373ffffffffffffffffffffffffffffffffffffffff161415801561193657508273ffffffffffffffffffffffffffffffffffffffff168173ffffffffffffffffffffffffffffffffffffffff1614155b801561194957506119478184610e0f565b155b1561198b57826040517fa9fbf51f000000000000000000000000000000000000000000000000000000008152600401611982919061201f565b60405180910390fd5b81156119ed57838573ffffffffffffffffffffffffffffffffffffffff168273ffffffffffffffffffffffffffffffffffffffff167f8c5be1e5ebec7d5bd14f71427d1e84f3dd0314c0f7b2291e5b200ac8c7c3b92560405160405180910390a45b505b8360045f8581526020019081526020015f205f6101000a81548173ffffffffffffffffffffffffffffffffffffffff021916908373ffffffffffffffffffffffffffffffffffffffff16021790555050505050565b611a4f838383611c7b565b611b02575f73ffffffffffffffffffffffffffffffffffffffff168373ffffffffffffffffffffffffffffffffffffffff1603611ac357806040517f7e273289000000000000000000000000000000000000000000000000000000008152600401611aba91906120af565b60405180910390fd5b81816040517f177e802f000000000000000000000000000000000000000000000000000000008152600401611af9929190612d79565b60405180910390fd5b505050565b611b118383611d3b565b611b25611b1c611072565b5f8585856115d6565b505050565b5f5f5f90507a184f03e93ff9f4daa797ed6e38ed64bf6a1f0100000000000000008310611b86577a184f03e93ff9f4daa797ed6e38ed64bf6a1f0100000000000000008381611b7c57611b7b612d4c565b5b0492506040810190505b6d04ee2d6d415b85acef81000000008310611bc3576d04ee2d6d415b85acef81000000008381611bb957611bb8612d4c565b5b0492506020810190505b662386f26fc100008310611bf257662386f26fc100008381611be857611be7612d4c565b5b0492506010810190505b6305f5e1008310611c1b576305f5e1008381611c1157611c10612d4c565b5b0492506008810190505b6127108310611c40576127108381611c3657611c35612d4c565b5b0492506004810190505b60648310611c635760648381611c5957611c58612d4c565b5b0492506002810190505b600a8310611c72576001810190505b80915050919050565b5f5f73ffffffffffffffffffffffffffffffffffffffff168373ffffffffffffffffffffffffffffffffffffffff1614158015611d3257508273ffffffffffffffffffffffffffffffffffffffff168473ffffffffffffffffffffffffffffffffffffffff161480611cf35750611cf28484610e0f565b5b80611d3157508273ffffffffffffffffffffffffffffffffffffffff16611d1983611039565b73ffffffffffffffffffffffffffffffffffffffff16145b5b90509392505050565b5f73ffffffffffffffffffffffffffffffffffffffff168273ffffffffffffffffffffffffffffffffffffffff1603611dab575f6040517f64a0ae92000000000000000000000000000000000000000000000000000000008152600401611da2919061201f565b60405180910390fd5b5f611db783835f61108b565b90505f73ffffffffffffffffffffffffffffffffffffffff168173ffffffffffffffffffffffffffffffffffffffff1614611e29575f6040517f73c6ac6e000000000000000000000000000000000000000000000000000000008152600401611e20919061201f565b60405180910390fd5b505050565b5f604051905090565b5f5ffd5b5f5ffd5b5f7fffffffff0000000000000000000000000000000000000000000000000000000082169050919050565b611e7381611e3f565b8114611e7d575f5ffd5b50565b5f81359050611e8e81611e6a565b92915050565b5f60208284031215611ea957611ea8611e37565b5b5f611eb684828501611e80565b91505092915050565b5f8115159050919050565b611ed381611ebf565b82525050565b5f602082019050611eec5f830184611eca565b92915050565b5f81519050919050565b5f82825260208201905092915050565b8281835e5f83830152505050565b5f601f19601f8301169050919050565b5f611f3482611ef2565b611f3e8185611efc565b9350611f4e818560208601611f0c565b611f5781611f1a565b840191505092915050565b5f6020820190508181035f830152611f7a8184611f2a565b905092915050565b5f819050919050565b611f9481611f82565b8114611f9e575f5ffd5b50565b5f81359050611faf81611f8b565b92915050565b5f60208284031215611fca57611fc9611e37565b5b5f611fd784828501611fa1565b91505092915050565b5f73ffffffffffffffffffffffffffffffffffffffff82169050919050565b5f61200982611fe0565b9050919050565b61201981611fff565b82525050565b5f6020820190506120325f830184612010565b92915050565b61204181611fff565b811461204b575f5ffd5b50565b5f8135905061205c81612038565b92915050565b5f5f6040838503121561207857612077611e37565b5b5f6120858582860161204e565b925050602061209685828601611fa1565b9150509250929050565b6120a981611f82565b82525050565b5f6020820190506120c25f8301846120a0565b92915050565b5f5f5f606084860312156120df576120de611e37565b5b5f6120ec8682870161204e565b93505060206120fd8682870161204e565b925050604061210e86828701611fa1565b9150509250925092565b5f5ffd5b5f5ffd5b7f4e487b71000000000000000000000000000000000000000000000000000000005f52604160045260245ffd5b61215682611f1a565b810181811067ffffffffffffffff8211171561217557612174612120565b5b80604052505050565b5f612187611e2e565b9050612193828261214d565b919050565b5f67ffffffffffffffff8211156121b2576121b1612120565b5b6121bb82611f1a565b9050602081019050919050565b828183375f83830152505050565b5f6121e86121e384612198565b61217e565b9050828152602081018484840111156122045761220361211c565b5b61220f8482856121c8565b509392505050565b5f82601f83011261222b5761222a612118565b5b813561223b8482602086016121d6565b91505092915050565b5f6020828403121561225957612258611e37565b5b5f82013567ffffffffffffffff81111561227657612275611e3b565b5b61228284828501612217565b91505092915050565b5f602082840312156122a05761229f611e37565b5b5f6122ad8482850161204e565b91505092915050565b6122bf81611ebf565b81146122c9575f5ffd5b50565b5f813590506122da816122b6565b92915050565b5f5f604083850312156122f6576122f5611e37565b5b5f6123038582860161204e565b9250506020612314858286016122cc565b9150509250929050565b5f67ffffffffffffffff82111561233857612337612120565b5b61234182611f1a565b9050602081019050919050565b5f61236061235b8461231e565b61217e565b90508281526020810184848401111561237c5761237b61211c565b5b6123878482856121c8565b509392505050565b5f82601f8301126123a3576123a2612118565b5b81356123b384826020860161234e565b91505092915050565b5f5f5f5f608085870312156123d4576123d3611e37565b5b5f6123e18782880161204e565b94505060206123f28782880161204e565b935050604061240387828801611fa1565b925050606085013567ffffffffffffffff81111561242457612423611e3b565b5b6124308782880161238f565b91505092959194509250565b5f5f6040838503121561245257612451611e37565b5b5f61245f8582860161204e565b92505060206124708582860161204e565b9150509250929050565b5f6020828403121561248f5761248e611e37565b5b5f61249c848285016122cc565b91505092915050565b7f4e487b71000000000000000000000000000000000000000000000000000000005f52602260045260245ffd5b5f60028204905060018216806124e957607f821691505b6020821081036124fc576124fb6124a5565b5b50919050565b5f6060820190506125155f830186612010565b61252260208301856120a0565b61252f6040830184612010565b949350505050565b5f81905092915050565b50565b5f61254f5f83612537565b915061255a82612541565b5f82019050919050565b5f61256e82612544565b9150819050919050565b7f5769746864726177206661696c656400000000000000000000000000000000005f82015250565b5f6125ac600f83611efc565b91506125b782612578565b602082019050919050565b5f6020820190508181035f8301526125d9816125a0565b9050919050565b5f819050815f5260205f209050919050565b5f6020601f8301049050919050565b5f82821b905092915050565b5f6008830261263c7fffffffffffffffffffffffffffffffffffffffffffffffffffffffffffffffff82612601565b6126468683612601565b95508019841693508086168417925050509392505050565b5f819050919050565b5f61268161267c61267784611f82565b61265e565b611f82565b9050919050565b5f819050919050565b61269a83612667565b6126ae6126a682612688565b84845461260d565b825550505050565b5f5f905090565b6126c56126b6565b6126d0818484612691565b505050565b5b818110156126f3576126e85f826126bd565b6001810190506126d6565b5050565b601f82111561273857612709816125e0565b612712846125f2565b81016020851015612721578190505b61273561272d856125f2565b8301826126d5565b50505b505050565b5f82821c905092915050565b5f6127585f198460080261273d565b1980831691505092915050565b5f6127708383612749565b9150826002028217905092915050565b61278982611ef2565b67ffffffffffffffff8111156127a2576127a1612120565b5b6127ac82546124d2565b6127b78282856126f7565b5f60209050601f8311600181146127e8575f84156127d6578287015190505b6127e08582612765565b865550612847565b601f1984166127f6866125e0565b5f5b8281101561281d578489015182556001820191506020850194506020810190506127f8565b8683101561283a5784890151612836601f891682612749565b8355505b6001600288020188555050505b505050505050565b7f4d696e74206973206e6f742061637469766500000000000000000000000000005f82015250565b5f612883601283611efc565b915061288e8261284f565b602082019050919050565b5f6020820190508181035f8301526128b081612877565b9050919050565b7f496e76616c6964207175616e74697479000000000000000000000000000000005f82015250565b5f6128eb601083611efc565b91506128f6826128b7565b602082019050919050565b5f6020820190508181035f830152612918816128df565b9050919050565b7f4e487b71000000000000000000000000000000000000000000000000000000005f52601160045260245ffd5b5f61295682611f82565b915061296183611f82565b92508282019050808211156129795761297861291f565b5b92915050565b7f45786365656473206d617820737570706c7900000000000000000000000000005f82015250565b5f6129b3601283611efc565b91506129be8261297f565b602082019050919050565b5f6020820190508181035f8301526129e0816129a7565b9050919050565b5f6129f182611f82565b91506129fc83611f82565b9250828202612a0a81611f82565b91508282048414831517612a2157612a2061291f565b5b5092915050565b7f496e73756666696369656e7420455448000000000000000000000000000000005f82015250565b5f612a5c601083611efc565b9150612a6782612a28565b602082019050919050565b5f6020820190508181035f830152612a8981612a50565b9050919050565b5f612a9a82611f82565b91507fffffffffffffffffffffffffffffffffffffffffffffffffffffffffffffffff8203612acc57612acb61291f565b5b600182019050919050565b7f546f6b656e20646f6573206e6f742065786973740000000000000000000000005f82015250565b5f612b0b601483611efc565b9150612b1682612ad7565b602082019050919050565b5f6020820190508181035f830152612b3881612aff565b9050919050565b5f81905092915050565b5f8154612b55816124d2565b612b5f8186612b3f565b9450600182165f8114612b795760018114612b8e57612bc0565b60ff1983168652811515820286019350612bc0565b612b97856125e0565b5f5b83811015612bb857815481890152600182019150602081019050612b99565b838801955050505b50505092915050565b5f612bd382611ef2565b612bdd8185612b3f565b9350612bed818560208601611f0c565b80840191505092915050565b7f2e6a736f6e0000000000000000000000000000000000000000000000000000005f82015250565b5f612c2d600583612b3f565b9150612c3882612bf9565b600582019050919050565b5f612c4e8285612b49565b9150612c5a8284612bc9565b9150612c6582612c21565b91508190509392505050565b5f81519050919050565b5f82825260208201905092915050565b5f612c9582612c71565b612c9f8185612c7b565b9350612caf818560208601611f0c565b612cb881611f1a565b840191505092915050565b5f608082019050612cd65f830187612010565b612ce36020830186612010565b612cf060408301856120a0565b8181036060830152612d028184612c8b565b905095945050505050565b5f81519050612d1b81611e6a565b92915050565b5f60208284031215612d3657612d35611e37565b5b5f612d4384828501612d0d565b91505092915050565b7f4e487b71000000000000000000000000000000000000000000000000000000005f52601260045260245ffd5b5f604082019050612d8c5f830185612010565b612d9960208301846120a0565b939250505056fea26469706673582212204787f402f6e694ff2bf75f0bcadd2ea77463777e1592273e97abff268ee874cd64736f6c634300081b0033",
  "linkReferences": {},
  "deployedLinkReferences": {}
}